20191123-10:04:41.640 : 8=FIX.4.4|9=76|35=A|34=1|49=CLIENT1|52=20191123-10:04:41.607|56=EXECUTOR|98=0|108=30|141=Y|10=137|
20191123-10:04:41.668 : 8=FIX.4.4|9=70|35=A|34=1|49=EXECUTOR|52=20191123-10:04:41.662|56=CLIENT1|98=0|108=30|10=087|
20191123-10:05:11.686 : 8=FIX.4.4|9=58|35=0|34=2|49=EXECUTOR|52=20191123-10:05:11.686|56=CLIENT1|10=056|
20191123-10:05:11.691 : 8=FIX.4.4|9=58|35=0|34=2|49=CLIENT1|52=20191123-10:05:11.689|56=EXECUTOR|10=059|
20191123-10:05:17.509 : 8=FIX.4.4|9=141|35=D|34=3|49=CLIENT1|52=20191123-10:05:17.506|56=EXECUTOR|11=1000.1|21=1|38=1000|40=2|44=100.15|54=1|55=VOD LN|59=0|60=20191123-10:05:04.050|10=210|
20191123-10:05:17.519 : 8=FIX.4.4|9=153|35=8|34=3|49=EXECUTOR|52=20191123-10:05:17.518|56=CLIENT1|6=100.15|11=1000.1|14=1000|17=1|31=100.15|32=1000|37=1|38=1000|39=2|54=1|55=VOD LN|150=2|151=0|10=121|
20191123-10:05:47.535 : 8=FIX.4.4|9=58|35=0|34=4|49=EXECUTOR|52=20191123-10:05:47.535|56=CLIENT1|10=060|
20191123-10:05:47.539 : 8=FIX.4.4|9=58|35=0|34=4|49=CLIENT1|52=20191123-10:05:47.536|56=EXECUTOR|10=061|
20191123-10:06:17.554 : 8=FIX.4.4|9=58|35=0|34=5|49=EXECUTOR|52=20191123-10:06:17.554|56=CLIENT1|10=060|
20191123-10:06:17.555 : 8=FIX.4.4|9=58|35=0|34=5|49=CLIENT1|52=20191123-10:06:17.554|56=EXECUTOR|10=060|
20191123-10:06:43.571 : 8=FIX.4.4|9=58|35=5|34=6|49=CLIENT1|52=20191123-10:06:43.569|56=EXECUTOR|10=071|
20191123-10:06:43.572 : 8=FIX.4.4|9=58|35=5|34=6|49=EXECUTOR|52=20191123-10:06:43.572|56=CLIENT1|10=065|
